:020000020000FC
:1000000000C008E00EBF0FEF0DBF0FEF0AB900E010
:100010000BB90FE007B908B900E304B907E005B967
:1000200000D2CBD1DAD103E8DCD192D000ECD9D127
:10003000A4D0F2D1F1D1F0D1D0D101E8D2D1BED04B
:1000400005ECCFD120E0B1E0A0E071D11F3FE9F392
:100050001D930AE2C9D16BD11F3FE9F723952430E4
:10006000A1F747D0002309F002C055D0E5CF5E9A32
:10007000D3D15E98B2D100E8B4D1BDD000ECB1D1FB
:10008000FAD0CAD1C9D15F9A52D0C6D1C5D1A5D1B3
:1000900001E8A7D11ED1C0D1BFD19FD100E8A1D125
:1000A0008DD000EC9ED132D120E0B1E0A0E03FD174
:1000B0001F3FE9F31D930AE297D139D11F3FE9F7BA
:1000C00023952430A1F715D0002389F05E9AA4D19E
:1000D0005E9883D100E885D18ED002EC82D1E2D047
:1000E0009BD19AD12DD05F9897D196D1A5CF13D01F
:1000F000D4CFB1E0A0E00D91003359F40D9101335C
:1001000041F40D91023329F40D91033311F401E010
:10011000089500E0089561D100E863D18DD02C9A54
:100120005E9A7AD179D178D15E982C98089554E668
:100130002D9A81D180D12D9879D15A95C9F70895FA
:1001400054E62D9A78D12D9871D15A95D1F708950A
:1001500007E54AD105E448D10CE446D103E444D193
:100160000FE442D10DE440D105E43ED100E23CD1A0
:1001700004E53AD10FE438D1089504E435D10FE411
:1001800033D10FE431D102E52FD100E22DD10CE4BF
:100190002BD10FE429D103E427D10BE425D100E2D0
:1001A00023D103E521D109E51FD103E51DD104E5E4
:1001B0001BD105E419D10DE417D1089505E414D13C
:1001C0000EE412D104E510D105E40ED102E50CD104
:1001D00000E20AD100E508D101E406D103E504D12B
:1001E00003E502D107E500D10FE4FED002E5FCD023
:1001F00004E4FAD0089503E4F7D00FE4F5D002E563
:10020000F3D002E5F1D005E4EFD003E4EDD004E54E
:10021000EBD000E2E9D000E5E7D001E4E5D003E56A
:10022000E3D003E5E1D007E5DFD00FE4DDD002E560
:10023000DBD004E4D9D0089507E5D6D002E5D4D0C8
:100240000FE4D2D00EE4D0D007E4CED000E2CCD080
:1002500000E5CAD001E4C8D003E5C6D003E5C4D0A8
:1002600007E5C2D00FE4C0D002E5BED004E4BCD0A4
:1002700001E2BAD0089504E4B7D00FE4B5D00FE49A
:10028000B3D002E5B1D000E2AFD00FE4ADD000E5CD
:10029000ABD005E4A9D00EE4A7D005E4A5D004E4D2
:1002A000A3D0089504E4A0D00FE49ED00FE49CD026
:1002B00002E59AD000E298D00CE496D00FE494D0F6
:1002C00003E492D00BE490D005E48ED004E48CD00B
:1002D000089501E489D003E487D003E485D005E4E0
:1002E00083D003E581D003E57FD000E27DD007E431
:1002F0007BD002E579D001E477D00EE475D004E537
:1003000073D005E471D004E46FD0089504E56CD097
:100310000FE46AD000E268D00CE466D00FE464D049
:1003200003E462D00BE460D00AE35ED008951FEFCF
:100330000EEF08B980D003B10770063031F10530F7
:1003400031F1033031F10DEF08B975D003B1077009
:10035000063009F1053009F1033009F10BEF08B956
:100360006AD003B107700630E1F00530E1F00330E8
:10037000E1F007EF08B95FD003B107700630C9F0AC
:100380000530A9F00330B9F0089511E3089512E3A0
:10039000089513E3089514E3089515E3089516E30B
:1003A000089517E3089518E3089519E3089510E3F5
:1003B00008951AE2089513E2089503E312D036D0A7
:1003C00002E30FD033D008E20CD00CE00AD006E0F4
:1003D00008D001E006D02AD0089501E002D026D04E
:1003E0000895589804D00895589A01D008950F930D
:1003F00002950F7005D00F910F7002D01CD0089598
:100400005BB1537C602F660F660F562B5BB9599A10
:1004100012D0599810D008955AE003D05A95E9F7B0
:10042000089544E608D04A95E9F7089544E103D0D9
:100430004A95E9F708953AEF000000003A95E1F790
:0204400008951D
:00000001FF
